:100000000C945E000C9486000C9486000C94860080
:100010000C9486000C9486000C9486000C94860048
:100020000C9486000C9486000C9486000C94860038
:100030000C9486000C9486000C9486000C94860028
:100040000C9447060C9486000C9424050C945605D9
:100050000C9486000C9486000C9486000C94860008
:100060000C9486000C948600000000080002010039
:100070000003040700000000000000000102040863
:100080001020408001020408102001020408102002
:10009000040404040404040402020202020203032E
:1000A0000303030300000000250028002B000000CC
:1000B0000000240027002A007503860511241FBEB6
:1000C000CFEFD8E0DEBFCDBF11E0A0E0B1E0EEE1C0
:1000D000F5E102C005900D92A231B107D9F721E0F8
:1000E000A2E1B1E001C01D92A63FB207E1F710E026
:1000F000CEE5D0E004C02197FE010E944908CC352E
:10010000D107C9F70E9438060C948D0A0C940000A0
:10011000CF92DF92EF92FF920F931F93CF93DF93D3
:10012000CDB7DEB72C970FB6F894DEBF0FBECDBFAC
:1001300029833A834B835C836D837E83CF82D88609
:10014000E986FA860B871C8726E0FE013196DC01E2
:1001500001900D922A95E1F726E0FE013796DC0129
:10016000169601900D922A95E1F726E0FE0177960A
:10017000DC011C9601900D922A95E1F726E0FE0124
:100180007D96DC01529601900D922A95E1F72C960E
:100190000FB6F894DEBF0FBECDBFDF91CF911F9198
:1001A0000F91FF90EF90DF90CF900895CF92DF9264
:1001B000EF92FF920F931F93CF93DF93EC016A01AD
:1001C000790177FD34C0AB0161E0CE010E944B02A2
:1001D000CE010696A60161E0D7FE05C0442755274B
:1001E0004C195D0960E00E944B02CE010C96A701FC
:1001F00061E0F7FE05C0442755274E195F0960E00E
:100200000E944B02CE014296A80161E017FF05C093
:1002100044275527401B510B60E0DF91CF911F9180
:100220000F91FF90EF90DF90CF900C944B024427FA
:100230005527461B570B60E0C8CF4F925F926F92D5
:100240007F928F929F92AF92BF92CF92DF92EF9266
:10025000FF920F931F93CF93DF93CDB7DEB72A970B
:100260000FB6F894DEBF0FBECDBF9A8789874A01CB
:100270005B0128013901C982DA82EB82FC8220E02D
:1002800030E0A901CB01B4010E941B0A7501640191
:10029000181624F0F7FAF094F7F8F09420E030E024
:1002A000A901C301B2010E941B0AA3019201181601
:1002B0000CF05058C701B6010E9450086B017C0138
:1002C00020E030E0A90169817A818B819C810E94C4
:1002D0001B0A29813A814B815C8118160CF0505819
:1002E000C701B6010E9450086B017C01AC019B0163
:1002F000C501B4010E94C1084B015C01A701960130
:10030000C301B2010E94C1082B013C01A701960163
:1003100069817A818B819C810E94C10869837A837B
:100320008B839C8320E030E048EC52E4C701B601A7
:100330000E941B0A18160CF485C020E030E048EC3F
:1003400052ECC701B6010E94BC0887FF06C0C12C51
:10035000D12C98ECE92E92ECF92EA7019601C5015B
:10036000B4010E94200A4B015C01A7019601C30160
:10037000B2010E94200A2B013C01A701960169816C
:100380007A818B819C810E94200A6B017C01A301F0
:100390009201C501B4010E944F0869837A838B835F
:1003A0009C83A3019201C501B4010E9450084B0136
:1003B0005C01A701960169817A818B819C810E94F1
:1003C0004F080E9433092B01A7019601C501B40112
:1003D0000E944F080E9433096D837E838F83988724
:1003E000A5019401C701B6010E9450080E9433097B
:1003F0004B0129813A814B815C81C701B6010E9482
:1004000050080E94330982012D813E81A401898513
:100410009A850E94D6002A960FB6F894DEBF0FBECA
:10042000CDBFDF91CF911F910F91FF90EF90DF90A3
:10043000CF90BF90AF909F908F907F906F905F9084
:100440004F900895C12CD12C88ECE82E82E4F82E30
:1004500084CF0F931F9310E000E030E020E050E0E5
:1004600040E070E060E00E94D6001F910F91089577
:10047000CF93FC01862FC42F608371834283538303
:1004800030E03583248361E00E94BC0761E08C2F5B
:10049000CF910C94BC070F931F93CF93DF938C01E4
:1004A00057FF02C050E040E0EA014536510514F024
:1004B000C4E6D0E0F801848195816817190609F532
:1004C00084E690E09C012C1B3D0BE90161E0F80102
:1004D00080810E94F807BE01DD0F880B990B0E94F6
:1004E0006B0923E333E343E250E40E94200A0E94B5
:1004F0003309F8018281DF91CF911F910F910C9404
:10050000360760E0E4CF0895FC0176836583AB0194
:10051000770F660B770B26E080E591E00C94C20420
:100520000F931F93CF93DF9300D0CDB7DEB78C012D
:1005300080E591E00E94E80302970CF445C042E098
:1005400050E0BE016F5F7F4F80E591E00E940E0694
:100550006AE070E080E090E00E94C20689818F3FEF
:1005600039F78A818F3F79F480E591E00E94E803B2
:10057000079734F462E370E080E090E00E94C206E6
:1005800089818F3FA9F68A818F3F91F680E591E0BE
:100590000E94E803079764F245E050E0B80180E567
:1005A00091E00E940E0642E050E0BE016F5F7F4F77
:1005B00080E591E00E940E0681E00F900F90DF91A0
:1005C000CF911F910F91089580E0F7CF60E875E219
:1005D00084E491E00E94840261E08DE00C94BC0709
:1005E0008F929F92AF92BF92CF92DF92EF92FF9243
:1005F0000F931F93CF9384E491E00E94900288238D
:1006000009F457C080914401C0914501873309F036
:1006100049C0609147016058770B072E000C880B8A
:10062000990B0E946B096B017C0160914601605837
:10063000770B072E000C880B990B0E946B094B015E
:100640005C018C2F8058990BBC01072E000C880B85
:10065000990B0E946B09AB01BC019501840184E1F7
:1006600091E00E941D016AE070E080E090E00E944D
:10067000C206109213011092120180911201909102
:100680001301449734F184E191E0CF911F910F91D0
:10069000FF90EF90DF90CF90BF90AF909F908F90A2
:1006A0000C9429028833F9F66C2F8DE00E94F8072C
:1006B000DACF80911201909113010196909313016A
:1006C0008093120162E370E080E090E00E94C20635
:1006D000D4CFCF911F910F91FF90EF90DF90CF90EB
:1006E000BF90AF909F908F900895CF92DF92EF923E
:1006F000FF920F931F9384E491E00E94830221E014
:1007000045E050E064E070E08EE391E00E94380242
:1007100020E046E050E067E070E088E391E00E946E
:10072000380220E043E050E062E070E082E391E0D4
:100730000E94380221E049E050E068E070E08CE27D
:1007400091E00E94380200D000D000D0ADB7BEB713
:10075000119686E0ECE2F1E001900D928A95E1F7C6
:1007600000D000D000D0ADB7BEB7119686E0E8E368
:10077000F1E001900D928A95E1F7C0903201D0909E
:100780003301E0903401F090350100913601109171
:10079000370120913E0130913F014091400150913D
:1007A0004101609142017091430184E191E00E9416
:1007B00088008DB79EB70C960FB6F8949EBF0FBEFB
:1007C0008DBF1F910F91FF90EF90DF90CF90089514
:1007D000FC01918D228D892F90E0805C9F4F821BC0
:1007E00091098F7399270895FC01918D828D981737
:1007F00031F0828DE80FF11D858D90E008958FEF27
:100800009FEF0895FC01918D828D981761F0A28D64
:10081000AE0FBF2FB11D5D968C91928D9F5F9F7320
:10082000928F90E008958FEF9FEF0895FC01538D14
:10083000448D252F30E0842F90E0821B930B5417BA
:1008400010F0CF960895019708958CE795E0892BD5
:1008500049F080E090E0892B29F00E947C0581110D
:100860000C9400000895FC01A48DA80FB92FB11DB0
:10087000A35ABF4F2C91848D90E001968F739927D6
:10088000848FA689B7892C93A089B1898C918370B4
:1008900080648C93938D848D981306C00288F389AD
:1008A000E02D80818F7D80830895CF93DF93EC01CD
:1008B000888D8823B9F0AA89BB89E889F9898C9148
:1008C00085FD03C0808186FD0DC00FB607FCF7CF04
:1008D0008C9185FFF2CF808185FFEDCFCE010E9404
:1008E0003304E9CFDF91CF910895EF92FF920F93F8
:1008F0001F93CF93DF93EC0181E0888F9B8D8C8DCC
:1009000098131AC0E889F989808185FF15C09FB7BF
:10091000F894EE89FF896083E889F9898081837082
:10092000806480839FBF81E090E0DF91CF911F9131
:100930000F91FF90EF900895F62E0B8D10E00F5F52
:100940001F4F0F731127E02E8C8D8E110CC00FB628
:1009500007FCFACFE889F989808185FFF5CFCE01C0
:100960000E943304F1CFEB8DEC0FFD2FF11DE35A04
:10097000FF4FF0829FB7F8940B8FEA89FB89808143
:100980008062CFCFCF92DF92EF92FF921F93CF93EF
:10099000DF93EC016A017B01122FE889F98982E07B
:1009A0008083C11481EED806E104F104A1F060E077
:1009B00079E08DE390E0A70196010E94270821507D
:1009C00031094109510956954795379527952115C4
:1009D00080E1380798F0E889F989108260E874E8C6
:1009E0008EE190E0A70196010E942708215031096D
:1009F000410951095695479537952795EC85FD8511
:100A00003083EE85FF852083188EEC89FD89108365
:100A1000EA89FB89808180618083EA89FB89808102
:100A200088608083EA89FB89808180688083EA8985
:100A3000FB8980818F7D8083DF91CF911F91FF9013
:100A4000EF90DF90CF9008951F920F920FB60F9204
:100A500011242F938F939F93EF93FF93E091600165
:100A6000F09161018081E0916601F091670182FD62
:100A70001BC09081809169018F5F8F7320916A0103
:100A8000821741F0E0916901F0E0E05BFE4F958F45
:100A900080936901FF91EF919F918F912F910F901A
:100AA0000FBE0F901F9018958081F4CF1F920F9268
:100AB0000FB60F9211242F933F934F935F936F9331
:100AC0007F938F939F93AF93BF93EF93FF9380E5B3
:100AD00091E00E943304FF91EF91BF91AF919F91FC
:100AE0008F917F916F915F914F913F912F910F90D7
:100AF0000FBE0F901F90189580E591E00E94E803CB
:100B000021E0892B09F420E0822F0895E0E5F1E04F
:100B10001382128288EE93E0A0E0B0E08483958394
:100B2000A683B78384E091E09183808385EC90E095
:100B30009587848784EC90E09787868780EC90E0A7
:100B4000918B808B81EC90E0938B828B82EC90E098
:100B5000958B848B86EC90E0978B868B118E128E12
:100B6000138E148E0895AF92BF92CF92DF92EF92C0
:100B7000FF920F931F93CF93DF936C017B018B0147
:100B8000040F151FEB015E01AE18BF08C017D10797
:100B900059F06991D601ED91FC910190F081E02D21
:100BA000C6010995892B79F7C501DF91CF911F9176
:100BB0000F91FF90EF90DF90CF90BF90AF9008958E
:100BC0000F931F93CF93DF93EC010E9491066887E8
:100BD00079878A879B87E881F9810284F385E02DF4
:100BE000CE01099597FF15C00E94910608851985C9
:100BF0002A853B85601B710B820B930B0C811D8139
:100C00002E813F81601771078207930720F38FEFD2
:100C10009FEFDF91CF911F910F910895AF92BF92F7
:100C2000CF92DF92EF92FF920F931F93CF93DF93B8
:100C30005C017B018B01040F151FEB016E01CE18C7
:100C4000DF08C017D10739F0C5010E94E00597FD04
:100C500002C08993F3CFC601DF91CF911F910F910D
:100C6000FF90EF90DF90CF90BF90AF9008950895E0
:100C70000E94FB060E9437060E94E602C5E2D4E00D
:100C80000E94F0022097E1F30E942504F9CF1F9201
:100C90000F920FB60F9211242F933F938F939F9330
:100CA000AF93BF938091EE019091EF01A091F0017D
:100CB000B091F1013091ED0123E0230F2D3758F56C
:100CC0000196A11DB11D2093ED018093EE0190933B
:100CD000EF01A093F001B093F1018091F2019091A6
:100CE000F301A091F401B091F5010196A11DB11D90
:100CF0008093F2019093F301A093F401B093F50176
:100D0000BF91AF919F918F913F912F910F900FBE07
:100D10000F901F90189526E8230F0296A11DB11D74
:100D2000D2CF2FB7F8946091EE017091EF018091CE
:100D3000F0019091F1012FBF08953FB7F894809191
:100D4000F2019091F301A091F401B091F50126B563
:100D5000A89B05C02F3F19F00196A11DB11D3FBFF3
:100D6000BA2FA92F982F8827BC01CD01620F711DC2
:100D7000811D911D42E0660F771F881F991F4A95BC
:100D8000D1F708958F929F92AF92BF92CF92DF9248
:100D9000EF92FF926B017C010E949D064B015C016A
:100DA000C114D104E104F104E9F00E9426080E9474
:100DB0009D06681979098A099B09683E7340810577
:100DC000910570F321E0C21AD108E108F10888EE1C
:100DD000880E83E0981EA11CB11CC114D104E1044B
:100DE000F10429F7FF90EF90DF90CF90BF90AF9084
:100DF0009F908F900895789484B5826084BD84B567
:100E0000816084BD85B5826085BD85B5816085BD05
:100E1000EEE6F0E0808181608083E1E8F0E010821E
:100E2000808182608083808181608083E0E8F0E05F
:100E3000808181608083E1EBF0E080818460808349
:100E4000E0EBF0E0808181608083EAE7F0E0808180
:100E500084608083808182608083808181608083E0
:100E60008081806880831092C10008951F93CF9382
:100E7000DF93182FEB0161E00E94BC07209739F443
:100E800060E0812FDF91CF911F910C94F807CF3F45
:100E9000D10511F461E0F5CFE12FF0E0E859FF4F03
:100EA000E491E33031F140F4E130B1F0E230E1F0CF
:100EB000C038D1057CF7E4CFE73029F1E83059F1AB
:100EC000E430B1F780918000806280938000D093FD
:100ED0008B00C0938A0004C084B5806884BDC7BD00
:100EE000DF91CF911F91089584B5806284BDC8BD04
:100EF000F7CF80918000806880938000D093890034
:100F0000C0938800EDCF8091B00080688093B000DE
:100F1000C093B300E5CF8091B00080628093B000B1
:100F2000C093B400DDCF833081F028F4813099F094
:100F30008230A9F008958730A9F08830C9F0843054
:100F4000B1F4809180008F7D03C0809180008F7705
:100F500080938000089584B58F7784BD089584B50B
:100F60008F7DFBCF8091B0008F778093B000089584
:100F70008091B0008F7DF9CFCF93DF9390E0FC019B
:100F8000E458FF4F249180579F4FFC0184918823A0
:100F9000C9F090E0880F991FFC01E255FF4FA59121
:100FA000B491FC01EC55FF4FC591D49161110DC076
:100FB0009FB7F8948C91209582238C938881282365
:100FC00028839FBFDF91CF910895623051F49FB77E
:100FD000F8943C91822F809583238C93E8812E2B6B
:100FE000EFCF8FB7F894EC912E2B2C938FBFEACFD5
:100FF0001F93CF93DF93282F30E0F901E859FF4F7B
:101000008491F901E458FF4FD491F901E057FF4F63
:10101000C491CC23A9F0162F81110E949307EC2FC5
:10102000F0E0EE0FFF1FEC55FF4FA591B4918FB785
:10103000F894EC91111108C0D095DE23DC938FBF9A
:10104000DF91CF911F910895DE2BF8CF0895A1E293
:101050001A2EAA1BBB1BFD010DC0AA1FBB1FEE1F32
:10106000FF1FA217B307E407F50720F0A21BB30B7D
:10107000E40BF50B661F771F881F991F1A9469F7F9
:1010800060957095809590959B01AC01BD01CF0155
:101090000895EE0FFF1F0590F491E02D099450582C
:1010A000BB27AA270E9467080C94E1090E94D30974
:1010B00038F00E94DA0920F039F49F3F19F426F441
:1010C0000C94D0090EF4E095E7FB0C94CA09E92FC3
:1010D0000E94F20958F3BA1762077307840795074D
:1010E00020F079F4A6F50C94140A0EF4E0950B2E7A
:1010F000BA2FA02D0B01B90190010C01CA01A0016A
:101100001124FF27591B99F0593F50F4503E68F1C4
:101110001A16F040A22F232F342F4427585FF3CF05
:10112000469537952795A795F0405395C9F77EF4D6
:101130001F16BA0B620B730B840BBAF09150A1F01F
:10114000FF0FBB1F661F771F881FC2F70EC0BA0FA5
:10115000621F731F841F48F4879577956795B7952D
:10116000F7959E3F08F0B0CF9395880F08F0992728
:10117000EE0F9795879508950E94A60908F481E0DF
:1011800008950E94D5080C94E1090E94DA0958F0EC
:101190000E94D30940F029F45F3F29F00C94CA095A
:1011A00051110C94150A0C94D0090E94F20968F3AD
:1011B0009923B1F3552391F3951B550BBB27AA2710
:1011C00062177307840738F09F5F5F4F220F331F4A
:1011D000441FAA1FA9F335D00E2E3AF0E0E832D012
:1011E00091505040E695001CCAF72BD0FE2F29D015
:1011F000660F771F881FBB1F261737074807AB07E7
:10120000B0E809F0BB0B802DBF01FF2793585F4F5B
:101210003AF09E3F510578F00C94CA090C94150AD7
:101220005F3FE4F3983ED4F3869577956795B7953D
:10123000F7959F5FC9F7880F911D9695879597F948
:101240000895E1E0660F771F881FBB1F62177307C1
:101250008407BA0720F0621B730B840BBA0BEE1FD6
:1012600088F7E09508950E943A096894B1110C94AA
:10127000150A08950E94FA0988F09F5798F0B92F2F
:101280009927B751B0F0E1F0660F771F881F991FBB
:101290001AF0BA95C9F714C0B13091F00E94140A3F
:1012A000B1E008950C94140A672F782F8827B85F4F
:1012B00039F0B93FCCF3869577956795B395D9F713
:1012C0003EF490958095709561957F4F8F4F9F4F1D
:1012D0000895E89409C097FB3EF490958095709529
:1012E00061957F4F8F4F9F4F9923A9F0F92F96E972
:1012F000BB279395F695879577956795B795F111E7
:10130000F8CFFAF4BB0F11F460FF1BC06F5F7F4F83
:101310008F4F9F4F16C0882311F096E911C0772395
:1013200021F09EE8872F762F05C0662371F096E89E
:10133000862F70E060E02AF09A95660F771F881F6D
:10134000DAF7880F9695879597F90895990F000811
:10135000550FAA0BE0E8FEEF16161706E807F90787
:10136000C0F012161306E407F50798F0621B730B22
:10137000840B950B39F40A2661F0232B242B252BA3
:1013800021F408950A2609F4A140A6958FEF811D46
:10139000811D089597F99F6780E870E060E00895E7
:1013A0009FEF80EC089500240A941616170618067D
:1013B0000906089500240A94121613061406050659
:1013C0000895092E0394000C11F4882352F0BB0FEA
:1013D00040F4BF2B11F460FF04C06F5F7F4F8F4F4D
:1013E0009F4F089557FD9058440F551F59F05F3F88
:1013F00071F04795880F97FB991F61F09F3F79F037
:1014000087950895121613061406551FF2CF4695B8
:10141000F1DF08C0161617061806991FF1CF86953A
:101420007105610508940895E894BB27662777271E
:10143000CB0197F908950E94A60908F48FEF08954B
:101440000E94330A0C94E1090E94D30938F00E94EB
:10145000DA0920F0952311F00C94CA090C94D009F4
:1014600011240C94150A0E94F20970F3959FC1F3A0
:10147000950F50E0551F629FF001729FBB27F00D42
:10148000B11D639FAA27F00DB11DAA1F649F662797
:10149000B00DA11D661F829F2227B00DA11D621FE6
:1014A000739FB00DA11D621F839FA00D611D221FA0
:1014B000749F3327A00D611D231F849F600D211D84
:1014C000822F762F6A2F11249F5750409AF0F1F007
:1014D00088234AF0EE0FFF1FBB1F661F771F881F70
:1014E00091505040A9F79E3F510580F00C94CA09D5
:1014F0000C94150A5F3FE4F3983ED4F386957795F4
:101500006795B795F795E7959F5FC1F7FE2B880F15
:0E151000911D9695879597F90895F894FFCF51
:10151E00000000007504B30516045504E803020428
:02152E00F403C4
:00000001FF
